{
  "contractName": "Verifier",
  "abi": [
    {
      "constant": true,
      "inputs": [
        {
          "internalType": "bytes",
          "name": "proof",
          "type": "bytes"
        },
        {
          "internalType": "uint256[6]",
          "name": "input",
          "type": "uint256[6]"
        }
      ],
      "name": "verifyProof",
      "outputs": [
        {
          "internalType": "bool",
          "name": "",
          "type": "bool"
        }
      ],
      "payable": false,
      "stateMutability": "view",
      "type": "function"
    }
  ],
  "bytecode": "0x608060405234801561001057600080fd5b50610d87806100206000396000f3fe608060405234801561001057600080fd5b506004361061002b5760003560e01c8063695ef6f914610030575b600080fd5b610102600480360360e081101561004657600080fd5b81019060208101813564010000000081111561006157600080fd5b82018360208201111561007357600080fd5b8035906020019184600183028401116401000000008311171561009557600080fd5b91908080601f016020809104026020016040519081016040528093929190818152602001838380828437600092019190915250506040805160c081810190925293969594818101949350915060069083908390808284376000920191909152509194506101169350505050565b604080519115158252519081900360200190f35b6000610120610ba2565b8380602001905161010081101561013657600080fd5b50905060005b60088160ff1610156101c1577f30644e72e131a029b85045b68181585d97816a916871ca8d3c208c16d87cfd47828260ff166008811061017857fe5b6020020151106101b95760405162461bcd60e51b8152600401808060200182810382526022815260200180610d316022913960400191505060405180910390fd5b60010161013c565b506101ca610bc1565b506040805180820190915281518152602080830151908201526101eb610bdb565b506040805160808082018352848301518284019081526060808701519084015282528251808401909352840151825260a0840151602080840191909152810191909152610236610bc1565b506040805180820190915260c0840151815260e0840151602082015261025a610c00565b610262610367565b905061026c610bc1565b5060808101515160005b6006811015610331577f30644e72e131a029b85045b68181585d2833e84879b9709143e1f593f00000018982600681106102ac57fe5b6020020151106102ed5760405162461bcd60e51b8152600401808060200182810382526025815260200180610d0c6025913960400191505060405180910390fd5b610327826103228560800151846001016007811061030757fe5b60200201518c856006811061031857fe5b6020020151610834565b6108d9565b9150600101610276565b5061035a61033e8661097d565b8584600001518560200151858760400151898960600151610a24565b9998505050505050505050565b61036f610c00565b6040805180820182527f0ee98b8065d2307ae8d494a07eb1a76d27fe8b2696dfc124ff7d148e71af3f7281527f1afe98c5534884a2ba44663967ab4f05a97d77f54604acb49a1b711ef9ec4ab76020808301919091529083528151608080820184527f101967d3df8b8283bdf2e0feb1e525b0d39cd3fa605e3b2ab8201373cb6f2aa58285019081527f2db7f603b444ec4c6d998f4f56638fc43b2b706b2ebdce783ee3863b08c8d6f8606080850191909152908352845180860186527f1c7fc14a8d82208df765d62f3cbf4cd821ae7a69c20649af7821eb833cced98d81527f09e1a97e17a53159fa86ab2992cec16ac0fc843510ae87b9d443da2d093e44d4818601528385015285840192909252835180820185527f0e64808b2af745b5e06fa62f8bb2ba21a9a254763487d61093d0653dde1888778186019081527f0b2d1cdbdd47a63f5a06e36d6772756676379977aee22411ca75ce5b257f8187828501528152845180860186527f09aef5608f8d0b954a1753dc975785634d690d36fa60decb043a1ce34f15ff8c81527f14b80b075f2b6fa1a5eed2339107e8690bc52690f460a96194cf845c121fc664818601528185015285850152835180820185527f251260c061b5a3452cefd7a90d22dcfac4b6fb2af9be52b1ca44fa1b0d7e869e8186019081527f1f7f4e55de55141ea22ae3a05f37c42e21b7afaa97f6e6dedef82c9eb618f6b5828501528152845180860186527f29a91c8d117735509460c192a142863a286a832ce12c151e6afa3172d53b7a1581527f12745ee6c4a33f60de01f81386a4f23e596f68687a83454157d081e77b555ea5818601528185015282860152835180850185527f1e17c9cead01c7ff4892f374792f22a2e31824dbfbab97a89c647d7aecf470b481527f23fa9ea2fb717ba18d25b9e1f1cd49346324890b569e58c67c61d8f0dec6ac6181850152818601805191909152845180860186527f2df6c303634af2f5afad42dedd46828291c7008d7116c4cc213091d7c047717581527f0e698d1d68eef215eb08e9ebc38f4085f7cf419b1cbc9c34c673e2cc6cf5cd7c818601528151850152845180860186527f168c11bb942c3b7a2febe609deffb1161591ea8d6dc1d99550821fff74932d9881527f128040fdc7b80fd3617f2470ab7282124b4835fd4ae92c37f2a5d10412bb178a818601528151860152845180860186527f247c2b91adc9d5e5628f4200b41b96e75e7f16e5c5ec6b480714e4c515762eb481527f03931e94612e4ea7752149a04995241c55dadbe3dbabf04492e2528acc15e06681860152815190930192909252835180850185527f010a0ff45322313407e10167b566324043a4457d036a15cb0de1629fb657688981527f2e7c061a6c523893e60c097d2e39a00dc6cba190c98bf5e5ea957983039023c181850152825190910152825180840184527f21b39f146df8d4e3aebf3f163dc734332f29324ecdbfb29cd8b41647b7e0e06481527f0e9eede1dcb0124d552d02a19dbf41b27799134c491ab7213972264765bd044b81840152815160a0015282518084019093527f0f16cbfa8e98467539d112cae1e7ab1a3d77c441b236ca715b41debebed3a25483527f0e9dcae5638cf5a03418f961fd379f42a8db2d39d3448deb2203b5fb953e4cf0918301919091525160c0015290565b61083c610bc1565b610844610c47565b60405180606001604052808560000151815260200185602001518152602001848152509050600060608360808460076107d05a03fa905080801561088757610889565bfe5b50806108d1576040805162461bcd60e51b81526020600482015260126024820152711c185a5c9a5b99cb5b5d5b0b59985a5b195960721b604482015290519081900360640190fd5b505092915050565b6108e1610bc1565b6108e9610c65565b604051806080016040528085600001518152602001856020015181526020018460000151815260200184602001518152509050600060608360c08460066107d05a03fa90508080156108875750806108d1576040805162461bcd60e51b81526020600482015260126024820152711c185a5c9a5b99cb5859190b59985a5b195960721b604482015290519081900360640190fd5b610985610bc1565b815115801561099657506020820151155b156109b557506040805180820190915260008082526020820152610a1f565b6040518060400160405280836000015181526020017f30644e72e131a029b85045b68181585d97816a916871ca8d3c208c16d87cfd478460200151816109f757fe5b067f30644e72e131a029b85045b68181585d97816a916871ca8d3c208c16d87cfd4703905290505b919050565b6000610a2e610c83565b5060408051610300810182528a5181526020808c0151818301528a5151928201929092528951820151606082015289820180515160808301525182015160a0820152885160c08201528882015160e08201528751516101008201528751820151610120820152878201805151610140830152518201516101608201528651610180820152868201516101a08201528551516101c082015285518201516101e08201528582018051516102008301525182015161022082015284516102408201528482015161026082015283515161028082015283518201516102a08201528382018051516102c083015251909101516102e0820152610b2b610ca2565b60006020826103008560086107d05a03fa9050808015610887575080610b90576040805162461bcd60e51b81526020600482015260156024820152741c185a5c9a5b99cb5bdc18dbd9194b59985a5b1959605a1b604482015290519081900360640190fd5b505115159a9950505050505050505050565b6040518061010001604052806008906020820280388339509192915050565b604051806040016040528060008152602001600081525090565b6040518060400160405280610bee610cc0565b8152602001610bfb610cc0565b905290565b6040518060a00160405280610c13610bc1565b8152602001610c20610bdb565b8152602001610c2d610bdb565b8152602001610c3a610bdb565b8152602001610bfb610cde565b60405180606001604052806003906020820280388339509192915050565b60405180608001604052806004906020820280388339509192915050565b6040518061030001604052806018906020820280388339509192915050565b60405180602001604052806001906020820280388339509192915050565b60405180604001604052806002906020820280388339509192915050565b6040518060e001604052806007905b610cf5610bc1565b815260200190600190039081610ced579050509056fe76657269666965722d696e7075742d6774652d736e61726b2d7363616c61722d6669656c6476657269666965722d70726f6f662d656c656d656e742d6774652d7072696d652d71a265627a7a72315820be58ea0eec7051e1dd7102665fde9056dd8c8ef36b904c11d5f61a402e6cda1e64736f6c63430005110032",
  "source": "// SPDX-License-Identifier: MIT\n\npragma solidity 0.5.17;\n\nlibrary Pairing {\n    uint256 constant PRIME_Q = 21888242871839275222246405745257275088696311157297823662689037894645226208583;\n\n    struct G1Point {\n        uint256 X;\n        uint256 Y;\n    }\n\n    // Encoding of field elements is: X[0] * z + X[1]\n    struct G2Point {\n        uint256[2] X;\n        uint256[2] Y;\n    }\n\n    /*\n     * @return The negation of p, i.e. p.plus(p.negate()) should be zero\n     */\n    function negate(G1Point memory p) internal pure returns (G1Point memory) {\n        // The prime q in the base field F_q for G1\n        if (p.X == 0 && p.Y == 0) {\n            return G1Point(0, 0);\n        } else {\n            return G1Point(p.X, PRIME_Q - (p.Y % PRIME_Q));\n        }\n    }\n\n    /*\n     * @return r the sum of two points of G1\n     */\n    function plus(\n        G1Point memory p1,\n        G1Point memory p2\n    ) internal view returns (G1Point memory r) {\n        uint256[4] memory input = [\n            p1.X, p1.Y,\n            p2.X, p2.Y\n        ];\n        bool success;\n\n        // solium-disable-next-line security/no-inline-assembly\n        assembly {\n            success := staticcall(sub(gas(), 2000), 6, input, 0xc0, r, 0x60)\n            // Use \"invalid\" to make gas estimation work\n            switch success case 0 { invalid() }\n        }\n\n        require(success, \"pairing-add-failed\");\n    }\n\n    /*\n     * @return r the product of a point on G1 and a scalar, i.e.\n     *         p == p.scalarMul(1) and p.plus(p) == p.scalarMul(2) for all\n     *         points p.\n     */\n    function scalarMul(G1Point memory p, uint256 s) internal view returns (G1Point memory r) {\n        uint256[3] memory input = [p.X, p.Y, s];\n        bool success;\n\n        // solium-disable-next-line security/no-inline-assembly\n        assembly {\n            success := staticcall(sub(gas(), 2000), 7, input, 0x80, r, 0x60)\n            // Use \"invalid\" to make gas estimation work\n            switch success case 0 { invalid() }\n        }\n\n        require(success, \"pairing-mul-failed\");\n    }\n\n    /* @return The result of computing the pairing check\n     *         e(p1[0], p2[0]) *  .... * e(p1[n], p2[n]) == 1\n     *         For example,\n     *         pairing([P1(), P1().negate()], [P2(), P2()]) should return true.\n     */\n    function pairing(\n        G1Point memory a1,\n        G2Point memory a2,\n        G1Point memory b1,\n        G2Point memory b2,\n        G1Point memory c1,\n        G2Point memory c2,\n        G1Point memory d1,\n        G2Point memory d2\n    ) internal view returns (bool) {\n        uint256[24] memory input = [\n            a1.X, a1.Y, a2.X[0], a2.X[1], a2.Y[0], a2.Y[1],\n            b1.X, b1.Y, b2.X[0], b2.X[1], b2.Y[0], b2.Y[1],\n            c1.X, c1.Y, c2.X[0], c2.X[1], c2.Y[0], c2.Y[1],\n            d1.X, d1.Y, d2.X[0], d2.X[1], d2.Y[0], d2.Y[1]\n        ];\n        uint256[1] memory out;\n        bool success;\n\n        // solium-disable-next-line security/no-inline-assembly\n        assembly {\n            success := staticcall(sub(gas(), 2000), 8, input, mul(24, 0x20), out, 0x20)\n            // Use \"invalid\" to make gas estimation work\n            switch success case 0 { invalid() }\n        }\n\n        require(success, \"pairing-opcode-failed\");\n        return out[0] != 0;\n    }\n}\n\ncontract Verifier {\n    uint256 constant SNARK_SCALAR_FIELD = 21888242871839275222246405745257275088548364400416034343698204186575808495617;\n    uint256 constant PRIME_Q = 21888242871839275222246405745257275088696311157297823662689037894645226208583;\n    using Pairing for *;\n\n    struct VerifyingKey {\n        Pairing.G1Point alfa1;\n        Pairing.G2Point beta2;\n        Pairing.G2Point gamma2;\n        Pairing.G2Point delta2;\n        Pairing.G1Point[7] IC;\n    }\n\n    function verifyingKey() internal pure returns (VerifyingKey memory vk) {\n        vk.alfa1 = Pairing.G1Point(uint256(6745018050597478621992953652737887789959137469871170262970126921423985262450), uint256(12209967602943593739593924968765005161670708639699992656293220642961836755639));\n        vk.beta2 = Pairing.G2Point([uint256(7281893345916220073426646694368123951017963540466409165112490482793609898661), uint256(20679109128567148084197270435055588707703936430011597825384898416275005953784)], [uint256(12890483384541861968802914870694200688840721177421058980147980742663598954893), uint256(4469526021400560711912269017466236997179452638555482716803259713050541704404)]);\n        vk.gamma2 = Pairing.G2Point([uint256(6509951762133381973166203273676032731738221619706934377888674134838769911927), uint256(5055148628760479122737776699452810864445424227967043642004571465959138623879)], [uint256(4379940557648360460969357701463730437212130722189826188563103771140486987660), uint256(9371432949536528117675040880104510257214420195686343874622768291455749310052)]);\n        vk.delta2 = Pairing.G2Point([uint256(16768046398995933012983842435911578831050271357309476375049125387903428363934), uint256(14246628534532957274522974930769386172403519738685259394137151752173918942901)], [uint256(18843620997951007471500606515862666133866315832761939966297512977658346699285), uint256(8347240519665784653484884444972638520199496064672936398480912527958182551205)]);\n        vk.IC[0] = Pairing.G1Point(uint256(13611415762972372045044196370682701343126423416773064193992169239332284297396), uint256(16273756336523142042950155977320315693895092626325486200633384828895196785761));\n        vk.IC[1] = Pairing.G1Point(uint256(20790068496056683313969369837100976942027875507568639487367708994569228480885), uint256(6518872761091585479974810122664488895850788259726143307231754178702721011068));\n        vk.IC[2] = Pairing.G1Point(uint256(10198363644703171840511872305857123588553553678969268193866077665344556838296), uint256(8368236252455994252710157417562601788019113398542335833345477617249907578762));\n        vk.IC[3] = Pairing.G1Point(uint256(16502652287617345149735811430528916373745088024392880711978160480661047488180), uint256(1616876116969074103351732827930804830650972703461372463154790039515812978790));\n        vk.IC[4] = Pairing.G1Point(uint256(470091432408224938676204978038746823794331063618808917078400267708878252169), uint256(21025522193707018871875030533548618907580770595011262435264752382533769896897));\n        vk.IC[5] = Pairing.G1Point(uint256(15243687556292597828449015876727038073578803496650169083163770393019560288356), uint256(6613183519514039411727124574771391425648274217599183331237525605562391004235));\n        vk.IC[6] = Pairing.G1Point(uint256(6824971173686173364574481567714967539736785965291011350130437984265667060308), uint256(6611175206409678488480643897248993996015029583171216466167033287583865916656));\n\n    }\n\n    /*\n     * @returns Whether the proof is valid given the hardcoded verifying key\n     *          above and the public inputs\n     */\n    function verifyProof(\n        bytes memory proof,\n        uint256[6] memory input\n    ) public view returns (bool) {\n        uint256[8] memory p = abi.decode(proof, (uint256[8]));\n        for (uint8 i = 0; i < p.length; i++) {\n            // Make sure that each element in the proof is less than the prime q\n            require(p[i] < PRIME_Q, \"verifier-proof-element-gte-prime-q\");\n        }\n        Pairing.G1Point memory proofA = Pairing.G1Point(p[0], p[1]);\n        Pairing.G2Point memory proofB = Pairing.G2Point([p[2], p[3]], [p[4], p[5]]);\n        Pairing.G1Point memory proofC = Pairing.G1Point(p[6], p[7]);\n\n        VerifyingKey memory vk = verifyingKey();\n        // Compute the linear combination vkX\n        Pairing.G1Point memory vkX = vk.IC[0];\n        for (uint256 i = 0; i < input.length; i++) {\n            // Make sure that every input is less than the snark scalar field\n            require(input[i] < SNARK_SCALAR_FIELD, \"verifier-input-gte-snark-scalar-field\");\n            vkX = Pairing.plus(vkX, Pairing.scalarMul(vk.IC[i + 1], input[i]));\n        }\n\n        return Pairing.pairing(\n            Pairing.negate(proofA),\n            proofB,\n            vk.alfa1,\n            vk.beta2,\n            vkX,\n            vk.gamma2,\n            proofC,\n            vk.delta2\n        );\n    }\n}\n\n",
  "sourcePath": "/home/ryuuzaki/BSC/bermuda-core/contracts/Verifier.sol",
  "compiler": {
    "name": "solc",
    "version": "0.5.17+commit.d19bba13.Emscripten.clang"
  },
  "schemaVersion": "3.0.18",
  "updatedAt": "2021-02-22T13:22:52.326Z",
  "networkType": "ethereum",
  "devdoc": {
    "methods": {}
  },
  "userdoc": {
    "methods": {}
  }
}